:020000040800F2
:100000000000022069330008491000085110000860
:100010005310000855100008571000080000000099
:10002000000000000000000000000000591000085F
:100030005B100008000000005D1000085F10000861
:10004000B9330008B9330008B9330008B9330008E0
:10005000B9330008B9330008B9330008B9330008D0
:10006000B9330008B9330008B9330008B9330008C0
:10007000B9330008B9330008B9330008B9330008B0
:10008000B9330008B9330008B9330008B9330008A0
:10009000B9330008B9330008B9330008B933000890
:1000A000B9330008B9330008B9330008B933000880
:1000B000B9330008B9330008B9330008B933000870
:1000C000B9330008B9330008B9330008B933000860
:1000D000B9330008B9330008B9330008B933000850
:1000E00069100008B9330008B9330008B9330008B3
:1000F000B9330008B9330008B9330008B933000830
:10010000B9330008B9330008B9330008B93300081F
:10011000B9330008B9330008B9330008B93300080F
:10012000B9330008B93300088D100008B93300084E
:10013000B93300080000000000000000B9330008D7
:10014000B9330008B9330008B9330008B9330008DF
:10015000B9330008B9330008B9330008B9330008CF
:10016000B9330008B9330008B9330008B9330008BF
:10017000B9330008B9330008000000000000000097
:08018000B9330008B93300088F
:1001880010B5054C237833B9044B13B10448AFF3C9
:1001980000800123237010BD0C0000200000000027
:1001A8001434000808B5034B1BB103490348AFF3E7
:1001B800008008BD00000000100000201434000872
:1001C80081F0004102E000BF83F0004330B54FEA00
:1001D80041044FEA430594EA050F08BF90EA020F6D
:1001E8001FBF54EA000C55EA020C7FEA645C7FEA00
:1001F800655C00F0E2804FEA5454D4EB5555B8BF23
:100208006D420CDD2C4480EA020281EA030382EA93
:10021800000083EA010180EA020281EA0303362D25
:1002280088BF30BD11F0004F4FEA01314FF4801CF8
:100238004CEA113102D0404261EB410113F0004F0A
:100248004FEA03334CEA133302D0524263EB4303C1
:1002580094EA050F00F0A780A4F10104D5F1200E5F
:100268000DDB02FA0EFC22FA05F2801841F10001BA
:1002780003FA0EF2801843FA05F359410EE0A5F18E
:1002880020050EF1200E012A03FA0EFC28BF4CF0BF
:10029800020C43FA05F3C01851EBE37101F0004575
:1002A80007D54FF0000EDCF1000C7EEB00006EEB82
:1002B8000101B1F5801F1BD3B1F5001F0CD349080C
:1002C8005FEA30004FEA3C0C04F101044FEA445263
:1002D80012F5800F80F09A80BCF1004F08BF5FEAEA
:1002E800500C50F1000041EB045141EA050130BDCA
:1002F8005FEA4C0C404141EB010111F4801FA4F16D
:100308000104E9D191F0000F04BF01460020B1FAC1
:1003180081F308BF2033A3F10B03B3F120020CDAF9
:100328000C3208DD02F1140CC2F10C0201FA0CF0D7
:1003380021FA02F10CE002F11402D8BFC2F1200C3C
:1003480001FA02F120FA0CFCDCBF41EA0C019040F2
:10035800E41AA2BF01EB0451294330BD6FEA04043B
:100368001F3C1CDA0C340EDC04F11404C4F1200226
:1003780020FA04F001FA02F340EA030021FA04F338
:1003880045EA030130BDC4F10C04C4F1200220FA8F
:1003980002F001FA04F340EA0300294630BD21FACD
:1003A80004F0294630BD94F0000F83F4801306BF93
:1003B80081F480110134013D4EE77FEA645C18BF87
:1003C8007FEA655C29D094EA050F08BF90EA020F1E
:1003D80005D054EA000C04BF1946104630BD91EA16
:1003E800030F1EBF0021002030BD5FEA545C05D119
:1003F8004000494128BF41F0004130BD14F5800458
:100408003CBF01F5801130BD01F0004545F0FE41CB
:1004180041F470014FF0000030BD7FEA645C1ABF00
:10042800194610467FEA655C1CBF0B46024650EA37
:10043800013406BF52EA033591EA030F41F4002163
:1004480030BD00BF90F0000F04BF0021704730B5E9
:100458004FF4806404F132044FF000054FF00001BE
:1004680050E700BF90F0000F04BF0021704730B57F
:100478004FF4806404F1320410F0004548BF404254
:100488004FF000013EE700BF42004FEAE2014FEAA9
:1004980031014FEA02701FBF12F07F4393F07F4F84
:1004A80081F06051704732F07F4208BF704793F087
:1004B8007F4F04BF41F40021704730B54FF460749A
:1004C80001F0004521F000411CE700BF50EA01029D
:1004D80008BF704730B54FF000050AE050EA010246
:1004E80008BF704730B511F0004502D5404261EBB6
:1004F80041014FF4806404F132045FEA915C3FF4F7
:10050800D8AE4FF003025FEADC0C18BF03325FEA93
:10051800DC0C18BF033202EBDC02C2F1200300FA44
:1005280003FC20FA02F001FA03FE40EA0E0021FA69
:1005380002F11444BDE600BF70B54FF0FF0C4CF457
:10054800E06C1CEA11541DBF1CEA135594EA0C0F09
:1005580095EA0C0F00F0DEF82C4481EA030621EA44
:100568004C5123EA4C5350EA013518BF52EA03357F
:1005780041F4801143F4801338D0A0FB02CE4FF031
:100588000005E1FB02E506F00042E0FB03E54FF061
:100598000006E1FB03569CF0000F18BF4EF0010E59
:1005A800A4F1FF04B6F5007F64F5407404D25FEA55
:1005B8004E0E6D4146EB060642EAC62141EA555108
:1005C8004FEAC52040EA5E504FEACE2EB4F1FD0C4A
:1005D80088BFBCF5E06F1ED8BEF1004F08BF5FEAC8
:1005E800500E50F1000041EB045170BD06F000467A
:1005F80046EA010140EA020081EA0301B4EB5C0427
:10060800C2BFD4EB0C0541EA045170BD41F480111E
:100618004FF0000E013C00F3AB8014F1360FDEBF43
:10062800002001F0004170BDC4F10004203C35DA1F
:100638000C341BDC04F11404C4F1200500FA05F3A2
:1006480020FA04F001FA05F240EA020001F0004243
:1006580021F0004110EBD37021FA04F642EB0601B9
:100668005EEA430E08BF20EAD37070BDC4F10C04E3
:10067800C4F1200500FA04F320FA05F001FA04F2A7
:1006880040EA020001F0004110EBD37041F1000193
:100698005EEA430E08BF20EAD37070BDC4F120059E
:1006A80000FA05F24EEA020E20FA04F301FA05F206
:1006B80043EA020321FA04F001F0004121FA04F2AE
:1006C80020EA020000EBD3705EEA430E08BF20EA7E
:1006D800D37070BD94F0000F0FD101F000464000B8
:1006E80041EB010111F4801F08BF013CF7D041EA3A
:1006F800060195F0000F18BF704703F0004652003E
:1007080043EB030313F4801F08BF013DF7D043EA0E
:100718000603704794EA0C0F0CEA135518BF95EAC4
:100728000C0F0CD050EA410618BF52EA4306D1D14B
:1007380081EA030101F000414FF0000070BD50EA6A
:10074800410606BF1046194652EA430619D094EAF4
:100758000C0F02D150EA013613D195EA0C0F05D1DE
:1007680052EA03361CBF104619460AD181EA030132
:1007780001F0004141F0FE4141F470014FF00000EA
:1007880070BD41F0FE4141F4780170BD70B54FF085
:10079800FF0C4CF4E06C1CEA11541DBF1CEA135505
:1007A80094EA0C0F95EA0C0F00F0A7F8A4EB0504E7
:1007B80081EA030E52EA03354FEA013100F08880DE
:1007C8004FEA03334FF0805545EA131343EA1263A7
:1007D8004FEA022245EA111545EA10654FEA00265C
:1007E8000EF000419D4208BF964244F1FD0404F515
:1007F800407402D25B084FEA3202B61A65EB030571
:100808005B084FEA32024FF480104FF4002CB6EB2D
:10081800020E75EB030E22BFB61A754640EA0C00AD
:100828005B084FEA3202B6EB020E75EB030E22BFED
:10083800B61A754640EA5C005B084FEA3202B6EB2E
:10084800020E75EB030E22BFB61A754640EA9C00ED
:100858005B084FEA3202B6EB020E75EB030E22BFBD
:10086800B61A754640EADC0055EA060E18D04FEA7B
:10087800051545EA16754FEA06164FEAC30343EA1B
:1008880052734FEAC2025FEA1C1CC0D111F4801FE8
:100898000BD141EA00014FF000004FF0004CB6E7E1
:1008A80011F4801F04BF01430020B4F1FD0C88BF80
:1008B800BCF5E06F3FF6AFAEB5EB030C04BFB6EB8B
:1008C800020C5FEA500C50F1000041EB045170BD7E
:1008D8000EF0004E4EEA113114EB5C04C2BFD4EBAB
:1008E8000C0541EA045170BD41F480114FF0000E2F
:1008F800013C90E645EA060E8DE60CEA135594EAAB
:100908000C0F08BF95EA0C0F3FF43BAF94EA0C0FAD
:100918000AD150EA01347FF434AF95EA0C0F7FF422
:1009280025AF104619462CE795EA0C0F06D152EA76
:1009380003353FF4FDAE1046194622E750EA41065A
:1009480018BF52EA43067FF4C5AE50EA41047FF46B
:100958000DAF52EA43057FF4EBAE12E74FEA4102CE
:1009680012F5001215D211D56FF47873B3EB6252F9
:1009780012D94FEAC12343F0004343EA505311F020
:10098800004F23FA02F018BF404270474FF00000B2
:10099800704750EA013005D111F0004008BF6FF0F0
:1009A800004070474FF00000704700BF4FEA410217
:1009B800B2F1E04324BFB3F5001CDCF1FE5C0DD9B5
:1009C80001F0004C4FEAC0024CEA5070B2F1004FFF
:1009D80040EB830008BF20F00100704711F0804F02
:1009E80021D113F13872BCBF01F00040704741F4C7
:1009F80080114FEA5252C2F11802C2F1200C10FACB
:100A08000CF320FA02F018BF40F001004FEAC123AE
:100A18004FEAD32303FA0CFC40EA0C0023FA02F352
:100A28004FEA4303CCE77FEA625307D150EA013328
:100A38001EBF4FF0FE4040F44000704701F00040F8
:100A480040F0FE4040F40000704700BF53B94AB977
:100A5800002908BF00281CBF4FF0FF314FF0FF30BE
:100A680000F072B9ADF1080C6DE904CE00F006F89B
:100A7800DDF804E0DDE9022304B070472DE9F04712
:100A8800089E04468846002B4BD18A42154667D9F2
:100A9800B2FA82F24AB1C2F1200701FA02F320FA4F
:100AA80007F7954047EA030894404FEA154E230C90
:100AB800B8FBFEF71FFA85FC0EFB178843EA0843CC
:100AC80007FB0CF1994209D9EB1807F1FF3080F0C8
:100AD8001B81994240F21881023F2B445B1AA4B251
:100AE800B3FBFEF00EFB103344EA034400FB0CFC9E
:100AF800A44509D92C1900F1FF3380F00781A445DA
:100B080040F2048102382C4440EA0740A4EB0C046C
:100B180000271EB1D4400023C6E900433946BDE88A
:100B2800F0878B4209D9002E00F0EB800027C6E938
:100B3800000138463946BDE8F087B3FA83F7002F3D
:100B480047D18B4202D3824200F2FA80841A61EBC9
:100B5800030301209846002EE0D0C6E90048DDE7EF
:100B680002B9FFDEB2FA82F2002A40F08F80491BF8
:100B78004FEA154E1FFA85F80127B1FBFEFC230C3E
:100B88000EFB1C1143EA014308FB0CF1994207D9FB
:100B9800EB180CF1FF3002D2994200F2CD80844666
:100BA800591AA3B2B1FBFEF00EFB101443EA044439
:100BB80008FB00F8A04507D92C1900F1FF3302D231
:100BC800A04500F2B6801846A4EB080440EA0C40A1
:100BD8009FE7C7F1200CBB4022FA0CFE4EEA030E39
:100BE80001FA07F420FA0CF521FA0CF34FEA1E4833
:100BF8002543B3FBF8F92C0C08FB19331FFA8EFABE
:100C080044EA034309FB0AF49C4202FA07F200FA99
:100C180007F10BD91EEB030309F1FF3080F0878041
:100C28009C4240F28480A9F1020973441B1BADB2B7
:100C3800B3FBF8F008FB103345EA034400FB0AFA5B
:100C4800A24508D91EEB040400F1FF336BD2A2457C
:100C580069D90238744440EA0940A0FB0289A4EB30
:100C68000A044C45C2464B4654D351D0002E69D095
:100C7800B1EB0A0564EB030404FA0CFCFD40FC40EC
:100C88004CEA0505C6E90054002747E7C2F12003EE
:100C980020FA03F7954001FA02F021FA03F34FEA2C
:100CA800154E3843010CB3FBFEF71FFA85F80EFB0F
:100CB800173341EA034107FB08F38B4204FA02F4B5
:100CC80007D9691807F1FF3C2FD28B422DD9023F73
:100CD8002944CB1A81B2B3FBFEF00EFB103341EA74
:100CE800034100FB08F38B4207D9691800F1FF3C68
:100CF80017D28B4215D902382944C91A40EA074746
:100D08003BE73746304609E70746E7E61846FBE67D
:100D18004145ABD2B8EB020A69EB0E020138134623
:100D2800A4E76046E9E7184695E76746D1E78146B4
:100D38007CE702382C4447E7ACF1020C2B442FE740
:100D4800384608E73746E9E6704700BF30B595B042
:100D58003022002108A802F051FB002403940494D7
:100D680005940694079401941C4B1A6C42F0805227
:100D78001A641B6C03F080530193019B0294184B77
:100D88001A6842F480421A601B6803F48043029395
:100D9800029B012308934FF48033099302250E9593
:100DA8004FF480030F9304231093A82211921295F5
:100DB800139308A801F09CF80F2303930495059456
:100DC8004FF4A05306934FF480530793052103A8CB
:100DD80001F0CCFA01F058FA15B030BD00380240E5
:100DE8000070004010B501F077FFFFF7AFFF00F08B
:100DF80023F800F0BBF802F091F902F01BFA002486
:100E080004E0142001F094FF0134E4B202F08AFAFD
:100E1800142CF6D1054BD868FFF736FB02460B4673
:100E2800034802F07FF80024EBE700BF0C01002024
:100E38002C340008704700002DE9F0438BB00024E3
:100E4800059406940794089409940194424B1A6BEC
:100E580042F004021A631A6B02F004020192019A2A
:100E680002941A6B42F080021A631A6B02F0800235
:100E78000292029A03941A6B42F002021A631A6BE6
:100E880002F002020392039A04941A6B42F00102E0
:100E98001A631B6B03F001030493049B2F4E224635
:100EA80046F2C001304601F02BFCDFF8BC90224628
:100EB8004FF47041484601F023FC294F22464FF475
:100EC8008071384601F01CFC4FF4C043059301259E
:100ED80006950795089405A9304601F02DFB4FF4B7
:100EE80070430593069507954FF00208CDF82080CA
:100EF80005A9484601F020FB402305930695079471
:100F0800089405A9304601F017FB80230593069540
:100F18000795CDF8208005A9304601F00DFB4FF468
:100F28008073059306950795089405A9384601F03E
:100F380003FB4FF4006305930A4B0693079505A935
:100F4800384601F0F9FA2A462146282001F026FE03
:100F58000BB0BDE8F08300BF003802400008024033
:100F680000000240000021100004024008B50A48B1
:100F78000A4B03604FF4E133436000238360C3608E
:100F880003610C2242618361C36100F012FF00B962
:100F980008BDFFF74FFFFBE72800002000100140C5
:100FA800F0B589B000230393049305930693079340
:100FB800026803F1804303F588339A4201D009B0EF
:100FC800F0BD0022009203F59433596C41F01001F2
:100FD8005964596C01F01001009100990192196B44
:100FE80041F001011963196B01F0010101910199A7
:100FF80002921A6B42F002021A631B6B03F002039F
:101008000293029B4FF480630393022704970126FF
:101018000596032506950724079403A9064801F0B9
:101028008BFA40230393049705960695079403A922
:10103800024801F081FAC2E70000024000040240C1
:1010480008B501F067FA08BDFEE7FEE7FEE7FEE730
:1010580070477047704708B501F058FE08BD00009A
:1010680008B54FF4006001F05BFB044B1B685A6A3B
:10107800034B9A600022DA7008BD00BFCC00002044
:101088000C01002008B500220421034800F056FB9B
:10109800024801F083FC08BDCC0000206C00002051
:1010A8000E4B834200D0704710B51C460022042125
:1010B800184600F043FB4FF48071094801F026FB05
:1010C800084B01229A702268526A5A60282001F05F
:1010D800CFFD282001F096FD10BD00BFCC000020F8
:1010E800000002400C010020B0F5006F00D07047EE
:1010F80010B53B4B1A68536A3A49486898422DD94B
:101108001B1A03F57F43FF33B3F5E16F1AD3536A14
:101118000C468B60D4ED047A9FED337AF4EEC77AEF
:10112800F1EE10FA0FDB234683ED047A2D4B1A6992
:10113800DA605A614FF480412C4801F0E7FA282020
:1011480001F06EFD10BD9FED2A7AF4EEC77AF1EE3C
:1011580010FAEBD8234B83ED047AE7E71B1AA3F5C3
:10116800E16344F218718B4231D8536A1D4CA36075
:10117800181AFFF767F918A3D3E90023FFF7DCF97A
:10118800FFF714FC07EE900A20619FED177AF4EE42
:10119800C77AF1EE10FA0FDB234683ED047A114B80
:1011A8001A69DA605A614FF48041104801F0AEFACA
:1011B800282001F035FDC5E79FED0D7AF4EEC77ADA
:1011C800F1EE10FAEBD8074B83ED047AE7E7054B0D
:1011D8005A69DA60B6E700BFC3F5285C8FC2C53F1D
:1011E800CC0000200C0100200080224500080240AD
:1011F8000000C84282B0002100910B4B5A6C42F4A7
:1012080080425A645A6C02F480420092009A01911A
:101218001A6C42F080521A641B6C03F080530193DD
:10122800019B02B0704700BF0038024030B4036A27
:1012380023F001030362056A4268846924F0730499
:101248000B681C4325F002058B682B43104DA84200
:1012580003D005F58065A84205D123F00803CD68C1
:101268002B4323F004030A4DA84203D005F58065FB
:10127800A84205D122F440724D6915438A692A4370
:10128800426084614A684263036230BC704700BFB1
:101298000000014030B4036A23F480730362036AD8
:1012A8004268C46924F073040D682C4323F4007366
:1012B8008D6843EA0523124DA84203D005F58065E1
:1012C800A84206D123F40063CD6843EA052323F43A
:1012D80080630B4DA84203D005F58065A84207D16D
:1012E80022F440524D6942EA05128D6942EA05121C
:1012F8004260C4614A68C263036230BC704700BF81
:101308000000014030B4036A23F480530362036A87
:101318004468C26922F4E6420D6842EA052223F4D1
:1013280000538D6843EA0533094DA84203D005F5FB
:101338008065A84204D124F480444D6944EA8514A8
:101348004460C2614A680264036230BC704700BFEF
:101358000000014010B4036A046A24F00104046226
:10136800846924F0F00444EA021223F00A030B43D0
:10137800826103625DF8044B704710B4036A23F07E
:10138800100303628469036A24F4704444EA023255
:1013980023F0A00343EA0113826103625DF8044B62
:1013A8007047836823F07003194341F00701816097
:1013B8007047704710B5846B012384F83D30636A29
:1013C80083420BD0A36A834210D0E36A834210D0D1
:1013D800236B834204D10823237701E00123237779
:1013E8002046FFF75DFE0023237710BD02232377F5
:1013F800F6E704232377F3E7704710B5846B0123DE
:1014080084F83D30636A83420BD0A36A834210D0CC
:10141800E36A834210D0236B834204D108232377E5
:1014280001E0012323772046FFF7E6FF0023237717
:1014380010BD02232377F6E704232377F3E77047E9
:1014480008B5806B012380F83D30FFF7F8FF08BD31
:101458000368304A904212D0B0F1804F0FD0A2F505
:101468007C4290420BD002F58062904207D002F590
:101478008062904203D002F57842904203D123F073
:1014880070034A681343234A90422AD0B0F1804F30
:1014980027D0A2F57C42904223D002F58062904288
:1014A8001FD002F5806290421BD002F5784290422C
:1014B80017D002F57052904213D002F58062904224
:1014C8000FD002F5806290420BD0A2F5983290427C
:1014D80007D002F58062904203D002F58062904204
:1014E80003D123F44073CA68134323F080034A6985
:1014F800134303608B68C3620B688362054B984291
:1015080003D003F58063984201D10B69036301237B
:101518004361704700000140A8B110B5044690F837
:101528003D305BB1022384F83D30211D2068FFF770
:101538008FFF012384F83D30002010BD80F83C3037
:1015480001F006FEEEE701207047A8B110B5044689
:1015580090F83D305BB1022384F83D30211D2068AE
:10156800FFF776FF012384F83D30002010BD80F896
:101578003C30FFF71EFFEEE70120704730B4036AE6
:1015880023F010030362036A4468826922F4E64286
:101598000D6842EA052223F020038D6843EA05130B
:1015A800114DA84203D005F58065A84206D123F065
:1015B8008003CD6843EA051323F040030A4DA8428F
:1015C80003D005F58065A84207D124F440644D692D
:1015D80044EA85048D6944EA8504446082614A6866
:1015E8008263036230BC70470000014090F83C30D1
:1015F800012B28D010B50446012380F83C30022383
:1016080080F83D300C2A0BD8DFE802F0070A0A0AF6
:10161800110A0A0A150A0A0A19000068FFF706FEE5
:10162800012384F83D30002084F83C0010BD006898
:10163800FFF7A4FFF4E70068FFF72CFEF0E7006867
:10164800FFF760FEECE70220704710B4846824F4CA
:101658007F4442EA03230B43234383605DF8044B32
:10166800704790F83C30012B66D010B50446012332
:1016780080F83C30022380F83D300268936823F4F8
:101688007F4323F0770393600B68402B4AD013D92C
:10169800602B3DD01ED9702B28D0B3F5005F30D118
:1016A800CB684A6889680068FFF7CFFF22689368AB
:1016B80043F48043936024E0102B06D004D9202BF8
:1016C80003D0302B01D01CE0DBB919462068FFF7A6
:1016D80068FE16E0502B14D1CA6849680068FFF705
:1016E80039FE50212068FFF75CFE0AE0CB684A68A3
:1016F80089680068FFF7A9FF2268936843F07703B9
:101708009360012384F83D30002084F83C0010BD2C
:10171800CA6849680068FFF730FE60212068FFF753
:1017280040FEEEE7CA6849680068FFF713FE4021EB
:101738002068FFF736FEE4E70220704710B401F096
:101748001F01012303FA01F4036A23EA0403036275
:10175800036A8A40134303625DF8044B7047000034
:1017680070B590F83D60F6B2022E00F0928090F8C5
:101778003D60F6B2012E0DD016460D4604460C29E2
:1017880027D8DFE801F010262626432626265A26E3
:10179800262670001AB1022480F83D40ECE7002BA1
:1017A800F9D0012031E0426A4049D163426A404998
:1017B8001164426A3F49D164026834323146406A52
:1017C80001F09EF8002866D12268D36843F40073BC
:1017D800D360012229462068FFF7B0FF2368364A04
:1017E800934203D002F58062934203D15A6C42F4CB
:1017F80000425A642268936803F00703062B52D00C
:10180800136843F001031360002070BD826A274902
:10181800D163826A26491164826A2649D1640268C2
:1018280038323146806A01F06BF8002835D12268D9
:10183800D36843F48063D360CBE7C26A1B49D163A2
:10184800C26A1B491164C26A1A49D16402683C32EF
:101858003146C06A01F054F808BB2268D36843F4E3
:101868000063D360B5E7026B1049D163026B10497E
:101878001164026B0F49D164026840323146006B33
:1018880001F03EF868B92268D36843F48053D36006
:101898009FE70220B9E70120B7E70120B5E701205B
:1018A800B3E70120B1E70020AFE700BFBD13000890
:1018B80003140008491400080000014038B5044624
:1018C8000D460C2910D8DFE801F0070F0F0F300F75
:1018D8000F0F390F0F0F42000268D36823F400730B
:1018E800D360406A01F046F8002229462068FFF7D5
:1018F80025FF2368224A934232D002F58062934240
:101908002ED02368196A41F21112114208D1196ABE
:1019180040F24442114203D11A6822F001021A60CF
:10192800012384F83D30002038BD0268D36823F4D1
:101938008063D360806A01F01DF8D5E70268D36838
:1019480023F40063D360C06A01F014F8CCE702689E
:10195800D36823F48053D360006B01F00BF8C3E71E
:10196800196A41F211121142CBD1196A40F244426C
:101978001142C6D15A6C22F400425A64C1E700BF32
:101988000000014090F83C30012B1CD070B40126B7
:1019980080F83C60022380F83D30026855689368FF
:1019A80025F070050C682C4323F080054B682B4309
:1019B80054600268936080F83D60002380F83C30F2
:1019C800184670BC70470220704790F83C30012BD5
:1019D80022D0012380F83C30CB6823F440738A6816
:1019E800134323F480634A68134323F400630A68AB
:1019F800134323F480530A69134323F400534A69B9
:101A0800134323F48043CA691343026853640023D1
:101A180080F83C3018467047022070472DE9F8439B
:101A280004460268136923F44053C1680B431361E9
:101A380083680269134342691343C2691A43016800
:101A4800CB6823F4164323F00C031343CB600268DE
:101A5800536923F4407381690B435361C369B3F538
:101A6800004F60D00368B84A934200F0148102F531
:101A78008062934200F00F8100F02AFD00EB8000A5
:101A880000EB80006568AD00B0FBF5F5AF4FA7FB34
:101A980005356D092E0100F01BFD00EB800000EB01
:101AA80080006568AD00B0FBF5F900F011FD00EBB2
:101AB800800000EB80006568AD00B0FBF5F5A7FB82
:101AC80005356D094FF0640808FB15952D01323571
:101AD800A7FB05356D0905F0F005354400F0F8FC65
:101AE80000EB800000EB80006668B600B0FBF6F6FD
:101AF80000F0EEFC00EB800000EB800063689B00C8
:101B0800B0FBF3F0A7FB0030400908FB10684FEA70
:101B1800081808F13208A7FB0837C7F343172368EA
:101B28002F449F600DE10368874A93425BD002F51A
:101B38008062934257D000F0CBFC00EB800000EBB2
:101B4800800065686D00B0FBF5F5804FA7FB053593
:101B58006D092E0100F0BCFC00EB800000EB80005A
:101B680065686D00B0FBF5F900F0B2FC00EB800091
:101B780000EB800065686D00B0FBF5F5A7FB053547
:101B88006D094FF0640808FB1595ED003235A7FB89
:101B980005356D096D0005F4F875354400F098FCBD
:101BA80000EB800000EB800066687600B0FBF6F67C
:101BB80000F08EFC00EB800000EB800063685B00A7
:101BC800B0FBF3F3A7FB03235B0908FB13684FEA99
:101BD800C80808F13208A7FB0837C7F3421723687B
:101BE8002F449F60ADE000F083FC00EB800000EB29
:101BF800800065686D00B0FBF5F5544FA7FB05350F
:101C08006D092E0100F074FC00EB800000EB8000F1
:101C180065686D00B0FBF5F900F06AFC00EB800028
:101C280000EB800065686D00B0FBF5F5A7FB053596
:101C38006D094FF0640808FB1595ED003235A7FBD8
:101C480005356D096D0005F4F875354400F050FC54
:101C580000EB800000EB800066687600B0FBF6F6CB
:101C680000F046FC00EB800000EB800063685B003E
:101C7800B0FBF3F3A7FB03235B0908FB13684FEAE8
:101C8800C80808F13208A7FB0837C7F342172368CA
:101C98002F449F6055E000F02BFC00EB800000EB28
:101CA80080006568AD00B0FBF5F5284FA7FB05354A
:101CB8006D092E0100F01CFC00EB800000EB800099
:101CC8006568AD00B0FBF5F900F012FC00EB800090
:101CD80000EB80006568AD00B0FBF5F5A7FB0535A6
:101CE8006D094FF0640808FB15952D013235A7FBE7
:101CF80005356D0905F0F005354400F0F9FB00EBFA
:101D0800800000EB80006668B600B0FBF6F600F0D5
:101D1800EFFB00EB800000EB800063689B00B0FBEA
:101D2800F3F0A7FB0030400908FB10684FEA0818D9
:101D380008F13208A7FB0837C7F3431723682F4475
:101D48009F60BDE8F88300BF001001401F85EB517C
:101D58002DE9F04105460F4616469846069C2B6825
:101D68001B6837EA03030CBF01230023B3421DD1CC
:101D7800B4F1FF3FF3D02CB100F0D4FFA0EB080082
:101D8800A042ECD92A68D36823F4D073D3602A68B8
:101D9800536923F001035361202385F8393085F80E
:101DA8003A30002385F83830032000E00020BDE8F1
:101DB800F08158B310B5044690F839300BB324239A
:101DC80084F839302268D36823F40053D36020465E
:101DD800FFF724FE2268136923F4904313612268F5
:101DE800536923F02A0353612268D36843F40053EC
:101DF800D3600020E063202384F8393084F83A3037
:101E080010BD80F83830FFF7CBF8D8E701207047CD
:101E18002DE9F04182B01E4690F83930DBB2202B14
:101E280055D104460D469046002955D0002A55D074
:101E380090F83830012B53D0012380F83830002334
:101E4800C363212380F8393000F06CFF0746A4F8FB
:101E58002480A4F8268010E000963B4600228021CA
:101E68002046FFF775FF00283CD12B882268C3F372
:101E7800080353602369C3B90235E38C9BB2B3B13D
:101E8800E38C013B9BB2E384A368B3F5805FE3D0A6
:101E980000963B46002280212046FFF759FF18BBD9
:101EA8002A7823685A600135E7E70135E5E70096A7
:101EB8003B46002240212046FFF74AFF0346A8B9C7
:101EC800202284F83920002284F8382000E00223F8
:101ED800184602B0BDE8F0810123F9E70123F7E7CE
:101EE8000223F5E70323F3E70323F1E70323EFE7EF
:101EF800002800F0BB8170B582B00446036813F077
:101F0800010F3BD0A74B9B6803F00C03042B2CD08C
:101F1800A44B9B6803F00C03082B21D06368B3F52E
:101F2800803F4FD0B3F5A02F52D09E4B1A6822F4B1
:101F380080321A601A6822F480221A606368002BC3
:101F480050D000F0EFFE0546964B1B6813F4003F97
:101F580014D100F0E7FE401B6428F5D903208AE17C
:101F6800904B5B6813F4800FD8D08E4B1B6813F42A
:101F7800003F03D06368002B00F07A81236813F0D8
:101F8800020F55D0874B9B6813F00C0F3ED0854B42
:101F98009B6803F00C03082B33D0E368002B68D050
:101FA800814B01221A6000F0BDFE05467D4B1B687F
:101FB80013F0020F54D100F0B5FE401B0228F5D9EA
:101FC800032058E1774A136843F480331360B5E778
:101FD800744B1A6842F480221A601A6842F48032FC
:101FE8001A60ABE700F09EFE05466E4B1B6813F4C3
:101FF800003FC3D000F096FE401B6428F5D90320AB
:1020080039E1684B5B6813F4800FC6D1654B1B68D8
:1020180013F0020F04D0E368012B01D001202AE15C
:10202800604A136823F0F803216943EAC103136087
:10203800236813F0080F40D0636963B35B4B012238
:102048001A6000F06FFE0546564B5B6F13F0020FE7
:1020580033D100F067FE401B0228F5D903200AE1BE
:10206800504A136823F0F803216943EAC103136057
:10207800DEE74D4B00221A6000F054FE0546494B3E
:102088001B6813F0020FD3D000F04CFE401B02284F
:10209800F5D90320EFE0454B00221A6000F042FE1C
:1020A8000546404B5B6F13F0020F06D000F03AFE76
:1020B800401B0228F5D90320DDE0236813F0040F44
:1020C80079D0384B1B6C13F0805F33D10023019318
:1020D800344B1A6C42F080521A641B6C03F0805324
:1020E8000193019B0125324B1B6813F4807F23D099
:1020F800A368012B34D0052B38D02A4B1A6F22F055
:1021080001021A671A6F22F004021A67A368002BEB
:1021180036D000F007FE0646224B1B6F13F0020F65
:1021280048D100F0FFFD801B41F288339842F3D973
:102138000320A0E00025D6E71D4A136843F4807306
:10214800136000F0EFFD0646194B1B6813F4807FFF
:10215800CED100F0E7FD801B0228F5D903208AE0E4
:10216800104A136F43F001031367CFE70D4B1A6F43
:1021780042F004021A671A6F42F001021A67C5E7B3
:1021880000F0D0FD0646074B1B6F13F0020F11D06D
:1021980000F0C8FD801B41F288339842F3D9032030
:1021A80069E000BF0038024000004742800E474205
:1021B80000700040E5B9A369002B5BD0304A9268F3
:1021C80002F00C02082A58D0022B17D02D4B0022FF
:1021D8001A6000F0A7FD0446294B1B6813F0007F26
:1021E80042D000F09FFD001B0228F5D9032042E0F1
:1021F800234A136C23F080531364DCE7214B00223D
:102208001A6000F08FFD05461D4B1B6813F0007F18
:1022180006D000F087FD401B0228F5D903202AE0EC
:10222800E369226A1343626A43EA8213A26A520884
:10223800013A43EA0243E26A43EA0263104A5360FE
:10224800104B01221A6000F06DFD04460C4B1B6810
:1022580013F0007F06D100F065FD001B0228F5D9B8
:10226800032008E0002006E0002004E00120704779
:10227800012000E0002002B070BD0120FBE700BF94
:102288000038024060004742014B01221A60704743
:102298004C004742324B9B6803F00C03042B5CD084
:1022A800082B01D02F4870472DE9F04B2C4B5A686A
:1022B80002F03F025B6813F4800F2BD0284B5B6859
:1022C800C3F388131E4600275C010025E41A65EB5A
:1022D8000705A90141EA9461A001001B61EB050112
:1022E800CB0043EA5073C400A01943EB07014B022B
:1022F80043EAD0534402204619460023FEF7A6FBC2
:10230800174B5B68C3F3014301335B00B0FBF3F089
:10231800BDE8F08B124B5B68C3F388131E46002799
:102328005C010025E41A65EB0705A90141EA9461FF
:10233800A001001B61EB0501CB0043EA5073C40008
:10234800A01943EB07018B0243EA9053840220460D
:1023580019460023FEF77AFBD2E70348704700BF0F
:10236800003802400024F40000127A00002800F02F
:102378009D8070B504464F4B1B6803F00F038B42DA
:1023880009D2CBB24B4A1370136803F00F038B4288
:1023980001D0012070BD236813F0020F17D013F08D
:1023A800040F04D0444A936843F4E05393602368CD
:1023B80013F0080F04D0404A936843F460439360D5
:1023C8003D4A936823F0F003A068034393600D46E9
:1023D800236813F0010F32D06368012B21D09A1EB5
:1023E800012A25D9344A126812F0020F60D0324906
:1023F8008A6822F0030213438B6000F093FC0646C0
:102408002D4B9B6803F00C036268B3EB820F16D068
:1024180000F088FC801B41F288339842F0D90320F1
:10242800B8E7254A126812F4003FE0D10120B1E76D
:10243800214A126812F0007FD9D10120AAE71D4B6A
:102448001B6803F00F03AB4209D9EAB2194B1A70A3
:102458001B6803F00F03AB4201D001209AE7236801
:1024680013F0040F06D0144A936823F4E053E1688C
:102478000B439360236813F0080F07D00E4A936844
:1024880023F46043216943EAC1039360FFF702FF25
:10249800094B9B68C3F30313084AD35CD840084B25
:1024A8001860002000F0F2FB002073E7012070475D
:1024B80001206FE7003C0240003802404834000821
:1024C80008000020014B1868704700BF0800002072
:1024D80008B5FFF7F7FF044B9B68C3F38223034A51
:1024E800D35CD84008BD00BF00380240583400080B
:1024F80008B5FFF7E7FF044B9B68C3F34233034A71
:10250800D35CD84008BD00BF0038024058340008EA
:102518007047000008B5064BDB6813F0800F00D148
:1025280008BDFFF7F5FF034B80221A70F8E700BFDC
:10253800003802400E38024000230F2B00F2D780EB
:10254800F0B482B039E0072200E00022B2403A43FA
:102558000234674E46F82420664A1468EA4302EAC1
:1025680004064F6817F4803F01D045EA0406614C21
:102578002660646802EA04064F6817F4003F01D039
:1025880045EA04065B4C6660A46802EA04064F68E4
:1025980017F4801F01D045EA0406564CA660E4688B
:1025A80022404E6816F4001F01D045EA0402514C3F
:1025B800E26001330F2B00F2978001229A400C68E9
:1025C80004EA0205AA42F4D14C68022C01D0122C6C
:1025D80010D1DE08083650F826C003F00704A7001B
:1025E8000F24BC402CEA040C0C69BC4044EA0C04DF
:1025F80040F8264004685F000326BE40F64306EA1A
:10260800040C4C6804F00304BC4044EA0C04046065
:102618004C6804F1FF3CBCF1010F03D9112C01D027
:10262800122C10D1846806EA040CCC68BC4044EA39
:102638000C048460446824EA02024C68C4F3001461
:102648009C4014434460C26816408A68BA403243CA
:10265800C2604A6812F0805FABD000220192264A1D
:10266800546C44F480445464526C02F480420192E5
:10267800019A9C08A61C1E4A52F8267003F0030211
:1026880096000F22B24027EA02071C4A90423FF404
:102698005CAF02F5806290421AD002F580629042E7
:1026A80018D002F58062904216D002F580629042FE
:1026B80014D002F58062904212D002F580629042F6
:1026C80010D002F5806290423FF43DAF08223DE70A
:1026D80001223BE7022239E7032237E7042235E7E4
:1026E800052233E7062231E702B0F0BC7047704795
:1026F80000380140003C0140003802400000024020
:1027080012B909048161704781617047436931EAF0
:10271800030301D08161704709048161704700009B
:1027280008B5054B5B69034200D108BD024B5861EF
:10273800FEF7DAFCF9E700BF003C014030B4056859
:102748002C6824F480242C60046863608368402B20
:1027580005D0036899600368DA6030BC7047036885
:102768009A600368D960F8E70268D3B2103B0B4956
:10277800A1FB03131B090A49C95CC165032B06D8D1
:1027880022F47F7222F003028265806D704722F482
:102798007F7222F0030204328265F6E7ABAAAAAA86
:1027A80040340008836A826992B9012B0AD01BB1B0
:1027B800022B01D000207047C36A13F0807F2CD110
:1027C80000207047C36AB3F1C07F28D0002070474B
:1027D800B2F5005F05D0022B29D9032B15D00020B4
:1027E8007047032B03D8DFE803F01C041C0A002001
:1027F8007047C36A13F0807F15D100207047C36A01
:10280800B3F1C07F11D000207047C36A13F0807FF6
:1028180001D0012070470020704701207047012037
:102828007047012070470120704701207047012040
:102838007047000070B5044600F074FA002C5BD0B5
:102848000546002384F83430022384F835302268A2
:10285800136823F00103136023681A6812F0010F4C
:102868000AD000F05FFA401B0528F5D920236365DC
:10287800032084F8350070BD1A682048104061684C
:10288800A2680A43E1680A4321690A4361690A4365
:10289800A1690A43E1690A43216A0A430243616A5A
:1028A80004291ED01A602668756925F00705636A31
:1028B8001D43042B07D1A36A1D43E36A1BB12046BD
:1028C800FFF770FF90B975612046FFF74DFFE26D85
:1028D8003F239340836000206065012384F83530EE
:1028E800C9E7E16A206B01430A43DBE740236365DC
:1028F800012084F83500BEE70120BCE73F8010F0D6
:1029080038B5856D90F83440012C31D0012480F819
:10291800344090F83540E4B2012C04D0002380F80C
:102928003430022038BD0446022084F835000020E7
:1029380060652046FFF702FFE26D3F239340AB60DE
:102948002268136843F0160313602268536943F042
:1029580080035361236C23B12268136843F0080392
:1029680013602268136843F0010313600020D9E75D
:102978000220D7E790F83530DBB2022B03D0802352
:10298800436501207047052380F8353002681368D5
:1029980023F001031360002070470000F0B583B0F6
:1029A800044600230193724B1D68724BA3FB053547
:1029B800AD0A876D3E68C26D08239340334210D03C
:1029C80003681A6812F0040F0BD01A6822F0040288
:1029D8001A60C26D08239340BB60436D43F0010346
:1029E8004365E26D01239340334209D0226852695E
:1029F80012F0800F04D0BB60636D43F0020363657F
:102A0800E26D04239340334209D02268126812F021
:102A1800020F04D0BB60636D43F004036365E26D8D
:102A280010239340334224D02268126812F0080F12
:102A38001FD0BB6023681A6812F4802F0DD01B6862
:102A480013F4002F04D1236C9BB12046984710E063
:102A5800A36C73B1204698470BE01A6812F4807F84
:102A680003D11A6822F008021A60236C0BB12046C1
:102A78009847E26D20239340334255D0226812686C
:102A880012F0100F50D0BB6094F83530DBB2052B34
:102A98000ED023681A6812F4802F33D01B6813F401
:102AA800002F2AD1636C002B3ED0204698473BE08C
:102AB8002268136823F0160313602268536923F011
:102AC80080035361236CA3B12268136823F00803C1
:102AD8001360E26D3F239340BB60002384F83430D9
:102AE800012384F83530236D002B3FD020469847CA
:102AF8003CE0A36C002BE7D1EBE7E36BA3B12046E6
:102B0800984711E01A6812F4807F09D11A6822F0F8
:102B180010021A60002384F83430012384F8353019
:102B2800E36B0BB120469847636DFBB1636D13F0FF
:102B3800010F17D0052384F835302268136823F075
:102B480001031360019B01330193AB4204D823684E
:102B58001B6813F0010FF5D1002384F834300123EA
:102B680084F83530E36C0BB12046984703B0F0BDCC
:102B780008000020B5814E1B074AD36823F4E063A0
:102B88001B041B0C000200F4E060184340F0BF6017
:102B980040F40030D060704700ED00E030B4174BCF
:102BA800DB68C3F30223C3F10704042C28BF042401
:102BB8001D1D062D18D9033B4FF0FF3505FA04F407
:102BC80021EA0401994005FA03F322EA03031943B1
:102BD80000280BDB0901C9B200F1604000F5614033
:102BE80080F8001330BC70470023E5E700F00F00C1
:102BF8000901C9B2024B1954F4E700BF00ED00E027
:102C080014ED00E0002807DB00F01F024009012353
:102C18009340024A42F82030704700BF00E100E0CC
:102C280000280CDB00F01F024009012393402030EC
:102C3800034A42F82030BFF34F8FBFF36F8F7047BE
:102C480000E100E00138B0F1807F0AD2064B5860FD
:102C5800064AF02182F823100020986007221A60A3
:102C680070470120704700BF10E000E000ED00E071
:102C7800002808DB00F01F02400901239340603060
:102C8800014A42F82030704700E100E010B50446E0
:102C98000E4B18784FF47A73B3FBF0F30C4A1068B4
:102CA800B0FBF3F0FFF7CEFF68B90F2C01D9012074
:102CB8000AE0002221464FF0FF30FFF76FFF054B77
:102CC8001C60002000E0012010BD00BF00000020B3
:102CD800080000200400002008B50B4B1A6842F4D5
:102CE80000721A601A6842F480621A601A6842F424
:102CF80080721A600320FFF73FFF0020FFF7C6FF2E
:102D0800FEF778FA002008BD003C0240034A11682B
:102D1800034B1B780B441360704700BF680000200A
:102D280000000020014B1868704700BF68000020B1
:102D380038B50446FFF7F6FF0546B4F1FF3F02D069
:102D4800044B1B781C44FFF7EDFF401BA042FAD34D
:102D580038BD00BF000000200F49D1F8883043F487
:102D68007003C1F888300D4B1A6842F001021A60EE
:102D7800002098601A6822F0847222F480321A6067
:102D8800074A5A601A6822F480221A60D8604FF005
:102D980000638B60704700BF00ED00E00038024020
:102DA8001030002400B583B002A901F8010DFF23FB
:102DB80001220348FFF72CF803B05DF804FB00BFBD
:102DC8002800002038B528B10546002806DB2B4628
:102DD80000240FE03020FFF7E5FF38BD45422D20E5
:102DE800FFF7E0FFF3E70134124A82FB0312DB1717
:102DF800C3EBA203092BF6DC17E00E4A82FB0302A1
:102E0800DB17C3EBA20301318C42F6DC094A82FBD3
:102E18000312D817C0EBA20000EB80004200981AFA
:102E28003030C0B2FFF7BEFF013C002CD5DB2B468B
:102E38000021E9E76766666670B555EC104B10EE41
:102E4800100A2946FDF78AFD0646FFF7BBFF2E202C
:102E5800FFF7A8FF3046FDF705FB02460B46204664
:102E68002946FDF7B1F906A3D3E90023FDF764FB72
:102E7800FDF774FDFFF7A6FF70BD00BFAFF300803C
:102E88000000000080842E4110B5044602E00134A1
:102E9800FFF788FF20780028F9D110BD10B518B9C0
:102EA8000A48FFF7F1FF10BD044600EBD070401050
:102EB800FFF7F4FF002C04F00104B8BF644204F1EA
:102EC8003000C0B2FFF76EFFEDE700BF60340008C6
:102ED80010B518B91248FFF7D7FF10BD04460028EF
:102EE80010DB0011FFF7F4FF092C0DDD634204F03D
:102EF8000F0403F00F0358BF5C425734E0B2FFF7EA
:102F080051FFEAE70F30ECE7634204F00F0403F0E7
:102F18000F0358BF5C423034E0B2FFF743FFDCE7F1
:102F2800643400080FB410B582B004AB53F8044BF6
:102F3800019306E0019B1A1D01921878FFF732FFF2
:102F480002342078002800F0E380252840F0DC8057
:102F58006378253B532BF3D801A252F823F000BF26
:102F680009310008492F0008492F0008492F000897
:102F7800492F0008492F0008492F0008492F000849
:102F8800492F0008492F0008492F0008492F000839
:102F9800492F0008492F0008492F0008492F000829
:102FA800492F0008492F0008492F0008492F000819
:102FB800492F0008492F0008492F0008492F000809
:102FC800492F0008492F0008492F0008492F0008F9
:102FD800492F0008ED300008492F0008492F000844
:102FE800492F0008492F0008492F0008492F0008D9
:102FF800492F0008492F0008492F0008492F0008C9
:10300800492F0008492F0008492F0008492F0008B8
:10301800492F0008492F0008492F0008492F0008A8
:10302800492F0008492F0008492F0008FB300008E5
:10303800492F0008492F0008492F0008492F000888
:10304800492F0008492F0008492F0008492F000878
:10305800492F0008ED3000083D2F0008B93000085E
:10306800492F0008C7300008492F0008492F0008D9
:10307800B9300008492F0008492F0008492F0008D7
:10308800492F0008492F0008492F0008492F000838
:10309800492F0008492F0008DF300008492F000891
:1030A800492F0008492F0008492F0008FB30000865
:1030B800019B1A1D01921868FFF784FE40E7019BE7
:1030C800073323F0070303F10802019293ED000B85
:1030D800FFF7B2FE34E7019B1A1D01921868FFF74B
:1030E800D3FE2DE7019B1A1D01921868FFF7D6FE43
:1030F80026E7019B1A1D01921868FFF7E9FE1FE7F2
:103108002520FFF74FFE1BE70134FFF74BFE18E7BA
:1031180002B0BDE8104004B0704700BF00B583B0EE
:1031280000210191094B1A6B42F480021A631B6B50
:1031380003F480030193019B0A463A20FFF72EFD12
:103148003A20FFF75FFD03B05DF804FB003802404A
:1031580002681A4B9A4200D0704710B582B00446F4
:1031680000230193164A516C41F001015164526CDD
:1031780002F001020192019A1248134A02604FF0CC
:103188004062426040228260C3604FF48062026104
:103198004FF4006242614FF400528261C3614FF400
:1031A800803202624362FFF745FB20B9054BA362F8
:1031B8009C6302B010BDFDF73DFEF7E7000001403B
:1031C800003802406C0000204064024000B587B01F
:1031D8000023019302930393049305930268114B10
:1031E8009A4202D007B05DF804FB002300930E4B0F
:1031F8001A6B42F001021A631B6B03F00103009380
:10320800009B4FF40073019302230293012305935B
:1032180001A90648FFF790F904210548FEF74EFB7F
:10322800E0E700BF00000140003802400000024013
:10323800CC00002010B596B0002412941394149476
:1032480015941094119409940A940B940C940D9469
:103258000E940F942022214601A800F0CFF82F48A1
:103268002F4B0360A823436084604FF6FF73C3604D
:10327800046144618461FEF74FF900283BD116A927
:103288004FF4805341F8103D2448FEF7EAF900282E
:1032980034D12248FEF759F9002832D1002310937F
:1032A800119310A91D48FEF76DFB00282CD130237F
:1032B800099300230A9302220B920C930D930E9309
:1032C8000F93042209A91548FEF790F9F8B90023CD
:1032D800019302930393049305934FF400520692CB
:1032E800089301A90D48FEF770FB98B90B48FFF742
:1032F8006DFF16B010BDFDF79DFDC0E7FDF79AFD07
:10330800C7E7FDF797FDC9E7FDF794FDCFE7FDF7A0
:1033180091FDDCE7FDF78EFDE8E700BFCC0000205B
:103328000000014008B50B4B0022DA709A700123A7
:1033380007E05A1E084931F812200B3221F81320F1
:1033480001330F2BF5DD1023034A04210348FEF750
:1033580007FA08BD0C01002024010020CC00002041
:10336800DFF834D0002103E00C4B5B5843500431A4
:103378000B480C4B42189A42F6D30B4A02E0002342
:1033880042F8043B094B9A42F9D3FFF7E5FC00F0F9
:1033980011F8FDF727FD7047000002207834000877
:1033A800000000200C0000200C0000204401002038
:1033B800FEE7000070B50D4E0D4CA41BA4100025AF
:1033C800A54209D10B4E0C4C00F020F8A41BA41008
:1033D8000025A54205D170BD56F82530984701351E
:1033E800EEE756F8253098470135F2E770340008C3
:1033F800703400087034000874340008024403462E
:10340800934200D1704703F8011BF9E7F8B500BFF4
:10341800F8BC08BC9E467047F8B500BFF8BC08BCAD
:043428009E46704705
:10342C0064697374616E6365206973202566200D71
:10343C000A0000000006101600061016000000001E
:10344C000000000001020304060708090000000048
:0C345C0001020304306200003078000020
:083468001CD6FF7F01000000EB
:04347000AD010008A2
:0434740089010008C2
:0C34780001000000100000000024F4001F
:040000050800336953
:00000001FF
